:020000040800F2
:100000000820002045010008CD040008F503000881
:10001000C90400088D0100089D06000800000000CA
:10002000000000000000000000000000F1040008D3
:100030009101000800000000CF040008DD05000861
:100040005F0100085F0100085F0100085F01000810
:100050005F0100085F0100085F0100085F01000800
:100060005F0100085F0100085F0100085F010008F0
:100070005F0100085F0100085F0100085F010008E0
:100080005F0100085F0100085F0100085F010008D0
:100090005F0100085F0100085F0100085F010008C0
:1000A0005F0100085F0100085F0100085F010008B0
:1000B0005F0100085F0100085F0100085F010008A0
:1000C0005F0100085F0100085F0100085F01000890
:1000D0005F0100085F0100085F0100085F01000880
:1000E0005F0100085F0100085F0100085F01000870
:1000F0005F0100085F0100085F0100085F01000860
:100100005F0100085F0100085F0100085F0100084F
:100110005F0100085F0100085F0100085F0100083F
:100120005F0100085F0100085F0100085F0100082F
:10013000DFF80CD000F018F800480047C1060008AE
:10014000082000200648804706480047FEE7FEE7F3
:10015000FEE7FEE7FEE7FEE7FEE7FEE7FEE7FEE777
:10016000E105000831010008064C074D06E0E06893
:1001700040F0010394E8070098471034AC42F6D3EE
:10018000FFF7DAFFF80600081807000800BFFEE7CF
:10019000704770B54FF47A7300FB03F1002247E01B
:1001A00000BF00BF00BF00BF00BF00BF00BF00BF57
:1001B00000BF00BF00BF00BF00BF00BF00BF00BF47
:1001C00000BF00BF00BF00BF00BF00BF00BF00BF37
:1001D00000BF00BF00BF00BF00BF00BF00BF00BF27
:1001E00000BF00BF00BF00BF00BF00BF00BF00BF17
:1001F00000BF00BF00BF00BF00BF00BF00BF00BF07
:1002000000BF00BF00BF00BF00BF00BF00BF00BFF6
:1002100000BF00BF00BF00BF00BF00BF00BF00BFE6
:1002200000BF00BF00BF00BF00BF00BF00BF00BFD6
:1002300013460C46491E62F10002002674407340CA
:100240001C43ADD170BD2DE9F041024600250026CA
:10025000002000230024002791F803C00CF00F05B4
:1002600091F803C00CF0100CBCF1000F03D091F812
:1002700002C04CEA050591F800C0BCF1000F31D076
:10028000146800202BE04FF0010C0CFA00F3B1F8D9
:1002900000C00CEA03069E4220D183004FF00F0CF1
:1002A0000CFA03F7BC4305FA03FC4CEA040491F88A
:1002B00003C0BCF1280F06D14FF0010C0CFA00FC72
:1002C000C2F814C00AE091F803C0BCF1480F05D190
:1002D0004FF0010C0CFA00FCC2F810C0401C0828BA
:1002E000D1D31460B1F800C0BCF1FF0F34DD546805
:1002F00000202EE000F1080C4FF0010808FA0CF382
:10030000B1F800C00CEA03069E4221D183004FF0F1
:100310000F0C0CFA03F7BC4305FA03FC4CEA040487
:1003200091F803C0BCF1280F05D100F1080C08FAC0
:100330000CF8C2F8148091F803C0BCF1480F07D143
:1003400000F1080C4FF0010808FA0CF8C2F8108010
:10035000401C0828CED35460BDE8F081F0B50A46B1
:10036000002300240021002500F00046B6F1004FD4
:1003700002D11D4EF16901E01B4E7168C0F30345C7
:1003800083B200F44016B6F5401F08D121F0706129
:10039000154E766826F07066134F7E6012E000F40A
:1003A0008016B6F5801F06D1032606FA05F4A14390
:1003B00041F0706106E0460D360103FA06F6B143DE
:1003C00041F0706122B1460D360103FA06F6314361
:1003D00000F00046B6F1004F02D1034EF16101E09A
:1003E000014E7160F0BD00000000014041617047A6
:1003F0000161704700BFFEE708B50121102000F041
:1004000067F80020009010208DF803000720ADF859
:10041000000003208DF8020069460848FFF713FF2B
:1004200001210648FFF7E4FF02210448FFF7E0FF3F
:1004300004210248FFF7DCFF08BD00000010014066
:1004400010B51F48006820B101280FD0022827D11D
:1004500019E001211B48FFF7C9FF02211948FFF7E6
:10046000C7FF04211748FFF7C3FF19E00121154812
:10047000FFF7BEFF02211348FFF7B8FF0421114820
:10048000FFF7B6FF0CE001210E48FFF7B1FF022194
:100490000C48FFF7ADFF04210A48FFF7A7FF00BF94
:1004A00000BF07480068401C05490860084600680E
:1004B000032190FBF1F201FB12000149086010BD1D
:1004C000000000200010014000BFFEE770477047A9
:1004D00029B1064A92690243044B9A6104E0034A37
:1004E00092698243014B9A617047000000100240FC
:1004F000704710B500F002F810BD00000CB50020E8
:10050000019000903348006840F480303149086021
:1005100000BF3048006800F4003000900198401C93
:100520000190009818B90198B0F5A06FF1D1294851
:10053000006800F4003010B10120009001E00020BC
:1005400000900098012843D12348006840F0100033
:10055000214908600846006820F00300086008464A
:10056000006840F0020008601A4840681949486075
:100570000846406848600846406840F4806048602B
:100580000846406820F47C1048600846406840F403
:10059000E81048600846006840F08070086000BFBE
:1005A0000C48006800F000700028F9D00948406845
:1005B00020F00300074948600846406840F0020008
:1005C000486000BF0348406800F00C000828F9D1DB
:1005D0000CBD0000001002400020024070470000E7
:1005E00010B51348006840F0010011490860084642
:1005F0004068104908400E494860084600680E49A6
:1006000008400B4908600846006820F48020086014
:100610000846406820F4FE0048604FF41F008860E0
:10062000FFF767FF4FF000600449086010BD00004D
:10063000001002400000FFF8FFFFF6FE08ED00E0AA
:1006400070B501460A46501EB0F1807F01D30120EB
:100650001BE0501E4FF0E023586158170F2300286D
:1006600004DB1C07250E0B4C255406E01C07260E48
:10067000094C00F00F052D1F665500BF00204FF0FC
:10068000E0239861072018610020012801D100BFF4
:10069000FEE770BD00E400E018ED00E000BFFEE7FB
:1006A00002E008C8121F08C1002AFAD1704770473B
:1006B000002001E001C1121F002AFBD17047000099
:1006C00000BF01210846FFF703FF01210848FFF79B
:1006D00045FE00BF0748FFF7B3FFFFF78DFE05E0BB
:1006E000FFF7AEFE4FF4FA70FFF753FDF8E7000096
:1006F0000002300040190100180700080000002027
:1007000008000000A00600082007000808000020DC
:1007100000200000B00600080000000000000000FB
:0400000508000131BD
:00000001FF
